{
  "transactions": [
    {
      "hash": "0xf45c19d6f75161890dc4f11c92ace002f1c2c0b455c924a243ba1a0e0507660a",
      "transactionType": "CALL",
      "contractName": null,
      "contractAddress": "0x779877a7b0d9e8603169ddbd7836e478b4624789",
      "function": "transferAndCall(address,uint256,bytes)",
      "arguments": [
        "0x9DdfaCa8183c41ad55329BdeeD9F6A8d53168B1B",
        "3000000000000000000",
        "0x1a3ba2949a56cf0d40ecaf3ec280f87dbb6664a9bf43d6acb93d8de79d87bfbc"
      ],
      "transaction": {
        "from": "0x7cc477e9eb41c6d1d54234952932afb22d955e43",
        "to": "0x779877a7b0d9e8603169ddbd7836e478b4624789",
        "gas": "0x1c1ff",
        "value": "0x0",
        "input": "0x4000aea00000000000000000000000009ddfaca8183c41ad55329bdeed9f6a8d53168b1b00000000000000000000000000000000000000000000000029a2241af62c0000000000000000000000000000000000000000000000000000000000000000006000000000000000000000000000000000000000000000000000000000000000201a3ba2949a56cf0d40ecaf3ec280f87dbb6664a9bf43d6acb93d8de79d87bfbc",
        "nonce": "0x8",
        "chainId": "0xaa36a7"
      },
      "additionalContracts": [],
      "isFixedGasLimit": false
    }
  ],
  "receipts": [
    {
      "status": "0x1",
      "cumulativeGasUsed": "0xae4255",
      "logs": [
        {
          "address": "0x779877a7b0d9e8603169ddbd7836e478b4624789",
          "topics": [
            "0xddf252ad1be2c89b69c2b068fc378daa952ba7f163c4a11628f55a4df523b3ef",
            "0x0000000000000000000000007cc477e9eb41c6d1d54234952932afb22d955e43",
            "0x0000000000000000000000009ddfaca8183c41ad55329bdeed9f6a8d53168b1b"
          ],
          "data": "0x00000000000000000000000000000000000000000000000029a2241af62c0000",
          "blockHash": "0x4af4a9139c7b4f06d91d77e2e7d6dca935b9a7f2daf062cb8a46def3ca88b073",
          "blockNumber": "0x7168f8",
          "transactionHash": "0xf45c19d6f75161890dc4f11c92ace002f1c2c0b455c924a243ba1a0e0507660a",
          "transactionIndex": "0x5d",
          "logIndex": "0x97",
          "removed": false
        },
        {
          "address": "0x779877a7b0d9e8603169ddbd7836e478b4624789",
          "topics": [
            "0xe19260aff97b920c7df27010903aeb9c8d2be5d310a2c67824cf3f15396e4c16",
            "0x0000000000000000000000007cc477e9eb41c6d1d54234952932afb22d955e43",
            "0x0000000000000000000000009ddfaca8183c41ad55329bdeed9f6a8d53168b1b"
          ],
          "data": "0x00000000000000000000000000000000000000000000000029a2241af62c0000000000000000000000000000000000000000000000000000000000000000004000000000000000000000000000000000000000000000000000000000000000201a3ba2949a56cf0d40ecaf3ec280f87dbb6664a9bf43d6acb93d8de79d87bfbc",
          "blockHash": "0x4af4a9139c7b4f06d91d77e2e7d6dca935b9a7f2daf062cb8a46def3ca88b073",
          "blockNumber": "0x7168f8",
          "transactionHash": "0xf45c19d6f75161890dc4f11c92ace002f1c2c0b455c924a243ba1a0e0507660a",
          "transactionIndex": "0x5d",
          "logIndex": "0x98",
          "removed": false
        },
        {
          "address": "0x9ddfaca8183c41ad55329bdeed9f6a8d53168b1b",
          "topics": [
            "0x1ced9348ff549fceab2ac57cd3a9de38edaaab274b725ee82c23e8fc8c4eec7a",
            "0x1a3ba2949a56cf0d40ecaf3ec280f87dbb6664a9bf43d6acb93d8de79d87bfbc"
          ],
          "data": "0x000000000000000000000000000000000000000000000000000000000000000000000000000000000000000000000000000000000000000029a2241af62c0000",
          "blockHash": "0x4af4a9139c7b4f06d91d77e2e7d6dca935b9a7f2daf062cb8a46def3ca88b073",
          "blockNumber": "0x7168f8",
          "transactionHash": "0xf45c19d6f75161890dc4f11c92ace002f1c2c0b455c924a243ba1a0e0507660a",
          "transactionIndex": "0x5d",
          "logIndex": "0x99",
          "removed": false
        }
      ],
      "logsBloom": "0x00000004000000000400000000000000000000000020000000000000020000000000000000000000000000000100000000000000800000000000000000000020000000000000000000000008000000000000000000000000000020040020000008000000000000000000000000000000000000000000000000000010000040000000000000000000000000010000800000000020000000000000000000000000000000000000000000000000010000000000000000000000000004000000000000000002000000000000000000020000000000000000000100000000000000000010000000000000800000000000000000000000000000000000000000000000",
      "type": "0x2",
      "transactionHash": "0xf45c19d6f75161890dc4f11c92ace002f1c2c0b455c924a243ba1a0e0507660a",
      "transactionIndex": "0x5d",
      "blockHash": "0x4af4a9139c7b4f06d91d77e2e7d6dca935b9a7f2daf062cb8a46def3ca88b073",
      "blockNumber": "0x7168f8",
      "gasUsed": "0x133b1",
      "effectiveGasPrice": "0x5398257b2",
      "from": "0x7cc477e9eb41c6d1d54234952932afb22d955e43",
      "to": "0x779877a7b0d9e8603169ddbd7836e478b4624789",
      "contractAddress": null
    }
  ],
  "libraries": [],
  "pending": [],
  "returns": {},
  "timestamp": 1736158091,
  "chain": 11155111,
  "commit": "7d69f22"
}